{
  "_format": "hh-sol-artifact-1",
  "contractName": "DAOVoting",
  "sourceName": "contracts/DAOVoting.sol",
  "abi": [
    {
      "inputs": [
        {
          "internalType": "address",
          "name": "initialVoteRelayer",
          "type": "address"
        }
      ],
      "stateMutability": "nonpayable",
      "type": "constructor"
    },
    {
      "inputs": [],
      "name": "InvalidAddress",
      "type": "error"
    },
    {
      "inputs": [],
      "name": "InvalidTimeWindow",
      "type": "error"
    },
    {
      "inputs": [],
      "name": "InvalidVoteChoice",
      "type": "error"
    },
    {
      "inputs": [],
      "name": "ProposalAlreadyExists",
      "type": "error"
    },
    {
      "inputs": [],
      "name": "ProposalFinalizedAlready",
      "type": "error"
    },
    {
      "inputs": [],
      "name": "ProposalNotFound",
      "type": "error"
    },
    {
      "inputs": [],
      "name": "ReentrantCall",
      "type": "error"
    },
    {
      "inputs": [],
      "name": "Unauthorized",
      "type": "error"
    },
    {
      "inputs": [],
      "name": "VotingNotOpen",
      "type": "error"
    },
    {
      "inputs": [],
      "name": "VotingStillOpen",
      "type": "error"
    },
    {
      "anonymous": false,
      "inputs": [
        {
          "indexed": true,
          "internalType": "address",
          "name": "previousOwner",
          "type": "address"
        },
        {
          "indexed": true,
          "internalType": "address",
          "name": "newOwner",
          "type": "address"
        }
      ],
      "name": "OwnershipTransferred",
      "type": "event"
    },
    {
      "anonymous": false,
      "inputs": [
        {
          "indexed": true,
          "internalType": "uint256",
          "name": "proposalId",
          "type": "uint256"
        },
        {
          "indexed": true,
          "internalType": "bytes32",
          "name": "snapshotRoot",
          "type": "bytes32"
        },
        {
          "indexed": false,
          "internalType": "uint64",
          "name": "startTime",
          "type": "uint64"
        },
        {
          "indexed": false,
          "internalType": "uint64",
          "name": "endTime",
          "type": "uint64"
        },
        {
          "indexed": false,
          "internalType": "string",
          "name": "description",
          "type": "string"
        }
      ],
      "name": "ProposalCreated",
      "type": "event"
    },
    {
      "anonymous": false,
      "inputs": [
        {
          "indexed": true,
          "internalType": "uint256",
          "name": "proposalId",
          "type": "uint256"
        },
        {
          "indexed": false,
          "internalType": "uint256",
          "name": "yesVotes",
          "type": "uint256"
        },
        {
          "indexed": false,
          "internalType": "uint256",
          "name": "noVotes",
          "type": "uint256"
        },
        {
          "indexed": false,
          "internalType": "uint256",
          "name": "abstainVotes",
          "type": "uint256"
        }
      ],
      "name": "ProposalFinalized",
      "type": "event"
    },
    {
      "anonymous": false,
      "inputs": [
        {
          "indexed": true,
          "internalType": "uint256",
          "name": "proposalId",
          "type": "uint256"
        },
        {
          "indexed": false,
          "internalType": "uint8",
          "name": "voteChoice",
          "type": "uint8"
        }
      ],
      "name": "VoteCast",
      "type": "event"
    },
    {
      "anonymous": false,
      "inputs": [
        {
          "indexed": true,
          "internalType": "address",
          "name": "previousRelayer",
          "type": "address"
        },
        {
          "indexed": true,
          "internalType": "address",
          "name": "newRelayer",
          "type": "address"
        }
      ],
      "name": "VoteRelayerUpdated",
      "type": "event"
    },
    {
      "inputs": [
        {
          "internalType": "uint256",
          "name": "proposalId",
          "type": "uint256"
        },
        {
          "internalType": "enum DAOVoting.VoteChoice",
          "name": "voteChoice",
          "type": "uint8"
        }
      ],
      "name": "castVote",
      "outputs": [],
      "stateMutability": "nonpayable",
      "type": "function"
    },
    {
      "inputs": [
        {
          "internalType": "uint256",
          "name": "proposalId",
          "type": "uint256"
        },
        {
          "internalType": "string",
          "name": "description",
          "type": "string"
        },
        {
          "internalType": "bytes32",
          "name": "snapshotRoot",
          "type": "bytes32"
        },
        {
          "internalType": "uint64",
          "name": "startTime",
          "type": "uint64"
        },
        {
          "internalType": "uint64",
          "name": "endTime",
          "type": "uint64"
        }
      ],
      "name": "createProposal",
      "outputs": [],
      "stateMutability": "nonpayable",
      "type": "function"
    },
    {
      "inputs": [
        {
          "internalType": "uint256",
          "name": "proposalId",
          "type": "uint256"
        }
      ],
      "name": "finalizeProposal",
      "outputs": [],
      "stateMutability": "nonpayable",
      "type": "function"
    },
    {
      "inputs": [
        {
          "internalType": "uint256",
          "name": "proposalId",
          "type": "uint256"
        }
      ],
      "name": "getProposal",
      "outputs": [
        {
          "internalType": "uint256",
          "name": "id",
          "type": "uint256"
        },
        {
          "internalType": "string",
          "name": "description",
          "type": "string"
        },
        {
          "internalType": "bytes32",
          "name": "snapshotRoot",
          "type": "bytes32"
        },
        {
          "internalType": "uint64",
          "name": "startTime",
          "type": "uint64"
        },
        {
          "internalType": "uint64",
          "name": "endTime",
          "type": "uint64"
        },
        {
          "internalType": "bool",
          "name": "finalized",
          "type": "bool"
        },
        {
          "internalType": "uint256",
          "name": "yesVotes",
          "type": "uint256"
        },
        {
          "internalType": "uint256",
          "name": "noVotes",
          "type": "uint256"
        },
        {
          "internalType": "uint256",
          "name": "abstainVotes",
          "type": "uint256"
        }
      ],
      "stateMutability": "view",
      "type": "function"
    },
    {
      "inputs": [],
      "name": "getProposalIds",
      "outputs": [
        {
          "internalType": "uint256[]",
          "name": "",
          "type": "uint256[]"
        }
      ],
      "stateMutability": "view",
      "type": "function"
    },
    {
      "inputs": [
        {
          "internalType": "uint256",
          "name": "proposalId",
          "type": "uint256"
        }
      ],
      "name": "isVotingOpen",
      "outputs": [
        {
          "internalType": "bool",
          "name": "",
          "type": "bool"
        }
      ],
      "stateMutability": "view",
      "type": "function"
    },
    {
      "inputs": [],
      "name": "owner",
      "outputs": [
        {
          "internalType": "address",
          "name": "",
          "type": "address"
        }
      ],
      "stateMutability": "view",
      "type": "function"
    },
    {
      "inputs": [
        {
          "internalType": "address",
          "name": "newVoteRelayer",
          "type": "address"
        }
      ],
      "name": "setVoteRelayer",
      "outputs": [],
      "stateMutability": "nonpayable",
      "type": "function"
    },
    {
      "inputs": [
        {
          "internalType": "uint256",
          "name": "proposalId",
          "type": "uint256"
        }
      ],
      "name": "tallyVotes",
      "outputs": [
        {
          "internalType": "uint256",
          "name": "yesVotes",
          "type": "uint256"
        },
        {
          "internalType": "uint256",
          "name": "noVotes",
          "type": "uint256"
        },
        {
          "internalType": "uint256",
          "name": "abstainVotes",
          "type": "uint256"
        }
      ],
      "stateMutability": "view",
      "type": "function"
    },
    {
      "inputs": [
        {
          "internalType": "address",
          "name": "newOwner",
          "type": "address"
        }
      ],
      "name": "transferOwnership",
      "outputs": [],
      "stateMutability": "nonpayable",
      "type": "function"
    },
    {
      "inputs": [],
      "name": "voteRelayer",
      "outputs": [
        {
          "internalType": "address",
          "name": "",
          "type": "address"
        }
      ],
      "stateMutability": "view",
      "type": "function"
    }
  ],
  "bytecode": "0x60806040523480156200001157600080fd5b5060405162001f6d38038062001f6d83398181016040528101906200003791906200026e565b600073ffffffffffffffffffffffffffffffffffffffff168173ffffffffffffffffffffffffffffffffffffffff16036200009e576040517fe6c4247b00000000000000000000000000000000000000000000000000000000815260040160405180910390fd5b336000806101000a81548173ffffffffffffffffffffffffffffffffffffffff021916908373ffffffffffffffffffffffffffffffffffffffff16021790555080600160006101000a81548173ffffffffffffffffffffffffffffffffffffffff021916908373ffffffffffffffffffffffffffffffffffffffff160217905550600160028190555060008054906101000a900473ffffffffffffffffffffffffffffffffffffffff1673ffffffffffffffffffffffffffffffffffffffff16600073ffffffffffffffffffffffffffffffffffffffff167f8be0079c531659141344cd1fd0a4f28419497f9722a3daafe3b4186f6b6457e060405160405180910390a38073ffffffffffffffffffffffffffffffffffffffff16600073ffffffffffffffffffffffffffffffffffffffff167f527275f710447cdd76f672d0e5a58d4944c1a4a97a62b901d54bdef9adb4d3b560405160405180910390a350620002a0565b600080fd5b600073ffffffffffffffffffffffffffffffffffffffff82169050919050565b6000620002368262000209565b9050919050565b620002488162000229565b81146200025457600080fd5b50565b60008151905062000268816200023d565b92915050565b60006020828403121562000287576200028662000204565b5b6000620002978482850162000257565b91505092915050565b611cbd80620002b06000396000f3fe608060405234801561001057600080fd5b50600436106100a95760003560e01c80635652077c116100715780635652077c146101685780635678138814610184578063807df2b3146101a05780638da5cb5b146101bc578063c7f758a8146101da578063f2fde38b14610212576100a9565b8063074dbaa6146100ae5780630a5336c6146100de5780630fb071f5146100fc57806340ba1b1e146101185780634d318b0e14610136575b600080fd5b6100c860048036038101906100c391906112db565b61022e565b6040516100d59190611323565b60405180910390f35b6100e661031a565b6040516100f3919061137f565b60405180910390f35b61011660048036038101906101119190611475565b610340565b005b6101206106cc565b60405161012d91906115cd565b60405180910390f35b610150600480360381019061014b91906112db565b610724565b60405161015f939291906115fe565b60405180910390f35b610182600480360381019061017d91906112db565b6107b9565b005b61019e6004803603810190610199919061165a565b610a08565b005b6101ba60048036038101906101b591906116c6565b610d88565b005b6101c4610f39565b6040516101d1919061137f565b60405180910390f35b6101f460048036038101906101ef91906112db565b610f5d565b604051610209999897969594939291906117a1565b60405180910390f35b61022c600480360381019061022791906116c6565b6110ec565b005b6000816003600082815260200190815260200160002060030160109054906101000a900460ff1661028b576040517f635e873700000000000000000000000000000000000000000000000000000000815260040160405180910390fd5b60006003600085815260200190815260200160002090508060030160119054906101000a900460ff161580156102e357508060030160009054906101000a900467ffffffffffffffff1667ffffffffffffffff164210155b801561031157508060030160089054906101000a900467ffffffffffffffff1667ffffffffffffffff164211155b92505050919050565b600160009054906101000a900473ffffffffffffffffffffffffffffffffffffffff1681565b60008054906101000a900473ffffffffffffffffffffffffffffffffffffffff1673ffffffffffffffffffffffffffffffffffffffff163373ffffffffffffffffffffffffffffffffffffffff16146103c5576040517f82b4290000000000000000000000000000000000000000000000000000000000815260040160405180910390fd5b6002805403610400576040517f37ed32e800000000000000000000000000000000000000000000000000000000815260040160405180910390fd5b600280819055506003600087815260200190815260200160002060030160109054906101000a900460ff1615610462576040517fb8c39e6200000000000000000000000000000000000000000000000000000000815260040160405180910390fd5b8167ffffffffffffffff168167ffffffffffffffff16116104af576040517fb11cd48100000000000000000000000000000000000000000000000000000000815260040160405180910390fd5b60405180610140016040528087815260200186868080601f016020809104026020016040519081016040528093929190818152602001838380828437600081840152601f19601f8201169050808301925050505050505081526020018481526020018367ffffffffffffffff1681526020018267ffffffffffffffff16815260200160011515815260200160001515815260200160008152602001600081526020016000815250600360008881526020019081526020016000206000820151816000015560208201518160010190816105889190611a70565b506040820151816002015560608201518160030160006101000a81548167ffffffffffffffff021916908367ffffffffffffffff16021790555060808201518160030160086101000a81548167ffffffffffffffff021916908367ffffffffffffffff16021790555060a08201518160030160106101000a81548160ff02191690831515021790555060c08201518160030160116101000a81548160ff02191690831515021790555060e0820151816004015561010082015181600501556101208201518160060155905050600486908060018154018082558091505060019003906000526020600020016000909190919091505582867f0e50bf38ccecb0a3c9d3e438d73151b2cd16136ec5f56f1b39a14f2fb723f5c4848489896040516106b49493929190611b7e565b60405180910390a36001600281905550505050505050565b6060600480548060200260200160405190810160405280929190818152602001828054801561071a57602002820191906000526020600020905b815481526020019060010190808311610706575b5050505050905090565b6000806000836003600082815260200190815260200160002060030160109054906101000a900460ff16610784576040517f635e873700000000000000000000000000000000000000000000000000000000815260040160405180910390fd5b600060036000878152602001908152602001600020905080600401548160050154826006015494509450945050509193909250565b60008054906101000a900473ffffffffffffffffffffffffffffffffffffffff1673ffffffffffffffffffffffffffffffffffffffff163373ffffffffffffffffffffffffffffffffffffffff161461083e576040517f82b4290000000000000000000000000000000000000000000000000000000000815260040160405180910390fd5b6002805403610879576040517f37ed32e800000000000000000000000000000000000000000000000000000000815260040160405180910390fd5b60028081905550806003600082815260200190815260200160002060030160109054906101000a900460ff166108db576040517f635e873700000000000000000000000000000000000000000000000000000000815260040160405180910390fd5b60006003600084815260200190815260200160002090508060030160119054906101000a900460ff161561093b576040517f3ca4c07000000000000000000000000000000000000000000000000000000000815260040160405180910390fd5b8060030160089054906101000a900467ffffffffffffffff1667ffffffffffffffff164211610996576040517f88c081c700000000000000000000000000000000000000000000000000000000815260040160405180910390fd5b60018160030160116101000a81548160ff021916908315150217905550827f904f64d3d2c164a2f1e396101e5f5f82129a43c7c1563aa64c5cbcc22ec6b3028260040154836005015484600601546040516109f3939291906115fe565b60405180910390a25050600160028190555050565b600160009054906101000a900473ffffffffffffffffffffffffffffffffffffffff1673ffffffffffffffffffffffffffffffffffffffff163373ffffffffffffffffffffffffffffffffffffffff1614610a8f576040517f82b4290000000000000000000000000000000000000000000000000000000000815260040160405180910390fd5b6002805403610aca576040517f37ed32e800000000000000000000000000000000000000000000000000000000815260040160405180910390fd5b60028081905550816003600082815260200190815260200160002060030160109054906101000a900460ff16610b2c576040517f635e873700000000000000000000000000000000000000000000000000000000815260040160405180910390fd5b60006003600085815260200190815260200160002090508060030160119054906101000a900460ff1615610b8c576040517f3ca4c07000000000000000000000000000000000000000000000000000000000815260040160405180910390fd5b8060030160009054906101000a900467ffffffffffffffff1667ffffffffffffffff16421080610bdd57508060030160089054906101000a900467ffffffffffffffff1667ffffffffffffffff1642115b15610c14576040517f3d0e4af700000000000000000000000000000000000000000000000000000000815260040160405180910390fd5b600280811115610c2757610c26611bbe565b5b60ff16836002811115610c3d57610c3c611bbe565b5b60ff161115610c78576040517fc945806200000000000000000000000000000000000000000000000000000000815260040160405180910390fd5b60006002811115610c8c57610c8b611bbe565b5b836002811115610c9f57610c9e611bbe565b5b03610cc5576001816004016000828254610cb99190611c1c565b92505081905550610d30565b60016002811115610cd957610cd8611bbe565b5b836002811115610cec57610ceb611bbe565b5b03610d12576001816005016000828254610d069190611c1c565b92505081905550610d2f565b6001816006016000828254610d279190611c1c565b925050819055505b5b837ffaf20aa472cdd40ce9cb93dfbfac88bf51080cc5ceda4c652368886d5cb8b8f4846002811115610d6557610d64611bbe565b5b604051610d729190611c6c565b60405180910390a2505060016002819055505050565b60008054906101000a900473ffffffffffffffffffffffffffffffffffffffff1673ffffffffffffffffffffffffffffffffffffffff163373ffffffffffffffffffffffffffffffffffffffff1614610e0d576040517f82b4290000000000000000000000000000000000000000000000000000000000815260040160405180910390fd5b600073ffffffffffffffffffffffffffffffffffffffff168173ffffffffffffffffffffffffffffffffffffffff1603610e73576040517fe6c4247b00000000000000000000000000000000000000000000000000000000815260040160405180910390fd5b6000600160009054906101000a900473ffffffffffffffffffffffffffffffffffffffff16905081600160006101000a81548173ffffffffffffffffffffffffffffffffffffffff021916908373ffffffffffffffffffffffffffffffffffffffff1602179055508173ffffffffffffffffffffffffffffffffffffffff168173ffffffffffffffffffffffffffffffffffffffff167f527275f710447cdd76f672d0e5a58d4944c1a4a97a62b901d54bdef9adb4d3b560405160405180910390a35050565b60008054906101000a900473ffffffffffffffffffffffffffffffffffffffff1681565b600060606000806000806000806000896003600082815260200190815260200160002060030160109054906101000a900460ff16610fc7576040517f635e873700000000000000000000000000000000000000000000000000000000815260040160405180910390fd5b6000600360008d8152602001908152602001600020905080600001548160010182600201548360030160009054906101000a900467ffffffffffffffff168460030160089054906101000a900467ffffffffffffffff168560030160119054906101000a900460ff1686600401548760050154886006015487805461104b90611893565b80601f016020809104026020016040519081016040528092919081815260200182805461107790611893565b80156110c45780601f10611099576101008083540402835291602001916110c4565b820191906000526020600020905b8154815290600101906020018083116110a757829003601f168201915b505050505097509a509a509a509a509a509a509a509a509a5050509193959799909294969850565b60008054906101000a900473ffffffffffffffffffffffffffffffffffffffff1673ffffffffffffffffffffffffffffffffffffffff163373ffffffffffffffffffffffffffffffffffffffff1614611171576040517f82b4290000000000000000000000000000000000000000000000000000000000815260040160405180910390fd5b600073ffffffffffffffffffffffffffffffffffffffff168173ffffffffffffffffffffffffffffffffffffffff16036111d7576040517fe6c4247b00000000000000000000000000000000000000000000000000000000815260040160405180910390fd5b60008060009054906101000a900473ffffffffffffffffffffffffffffffffffffffff169050816000806101000a81548173ffffffffffffffffffffffffffffffffffffffff021916908373ffffffffffffffffffffffffffffffffffffffff1602179055508173ffffffffffffffffffffffffffffffffffffffff168173ffffffffffffffffffffffffffffffffffffffff167f8be0079c531659141344cd1fd0a4f28419497f9722a3daafe3b4186f6b6457e060405160405180910390a35050565b600080fd5b600080fd5b6000819050919050565b6112b8816112a5565b81146112c357600080fd5b50565b6000813590506112d5816112af565b92915050565b6000602082840312156112f1576112f061129b565b5b60006112ff848285016112c6565b91505092915050565b60008115159050919050565b61131d81611308565b82525050565b60006020820190506113386000830184611314565b92915050565b600073ffffffffffffffffffffffffffffffffffffffff82169050919050565b60006113698261133e565b9050919050565b6113798161135e565b82525050565b60006020820190506113946000830184611370565b92915050565b600080fd5b600080fd5b600080fd5b60008083601f8401126113bf576113be61139a565b5b8235905067ffffffffffffffff8111156113dc576113db61139f565b5b6020830191508360018202830111156113f8576113f76113a4565b5b9250929050565b6000819050919050565b611412816113ff565b811461141d57600080fd5b50565b60008135905061142f81611409565b92915050565b600067ffffffffffffffff82169050919050565b61145281611435565b811461145d57600080fd5b50565b60008135905061146f81611449565b92915050565b60008060008060008060a087890312156114925761149161129b565b5b60006114a089828a016112c6565b965050602087013567ffffffffffffffff8111156114c1576114c06112a0565b5b6114cd89828a016113a9565b955095505060406114e089828a01611420565b93505060606114f189828a01611460565b925050608061150289828a01611460565b9150509295509295509295565b600081519050919050565b600082825260208201905092915050565b6000819050602082019050919050565b611544816112a5565b82525050565b6000611556838361153b565b60208301905092915050565b6000602082019050919050565b600061157a8261150f565b611584818561151a565b935061158f8361152b565b8060005b838110156115c05781516115a7888261154a565b97506115b283611562565b925050600181019050611593565b5085935050505092915050565b600060208201905081810360008301526115e7818461156f565b905092915050565b6115f8816112a5565b82525050565b600060608201905061161360008301866115ef565b61162060208301856115ef565b61162d60408301846115ef565b949350505050565b6003811061164257600080fd5b50565b60008135905061165481611635565b92915050565b600080604083850312156116715761167061129b565b5b600061167f858286016112c6565b925050602061169085828601611645565b9150509250929050565b6116a38161135e565b81146116ae57600080fd5b50565b6000813590506116c08161169a565b92915050565b6000602082840312156116dc576116db61129b565b5b60006116ea848285016116b1565b91505092915050565b600081519050919050565b600082825260208201905092915050565b60005b8381101561172d578082015181840152602081019050611712565b60008484015250505050565b6000601f19601f8301169050919050565b6000611755826116f3565b61175f81856116fe565b935061176f81856020860161170f565b61177881611739565b840191505092915050565b61178c816113ff565b82525050565b61179b81611435565b82525050565b6000610120820190506117b7600083018c6115ef565b81810360208301526117c9818b61174a565b90506117d8604083018a611783565b6117e56060830189611792565b6117f26080830188611792565b6117ff60a0830187611314565b61180c60c08301866115ef565b61181960e08301856115ef565b6118276101008301846115ef565b9a9950505050505050505050565b7f4e487b7100000000000000000000000000000000000000000000000000000000600052604160045260246000fd5b7f4e487b7100000000000000000000000000000000000000000000000000000000600052602260045260246000fd5b600060028204905060018216806118ab57607f821691505b6020821081036118be576118bd611864565b5b50919050565b60008190508160005260206000209050919050565b60006020601f8301049050919050565b600082821b905092915050565b6000600883026119267fffffffffffffffffffffffffffffffffffffffffffffffffffffffffffffffff826118e9565b61193086836118e9565b95508019841693508086168417925050509392505050565b6000819050919050565b600061196d611968611963846112a5565b611948565b6112a5565b9050919050565b6000819050919050565b61198783611952565b61199b61199382611974565b8484546118f6565b825550505050565b600090565b6119b06119a3565b6119bb81848461197e565b505050565b5b818110156119df576119d46000826119a8565b6001810190506119c1565b5050565b601f821115611a24576119f5816118c4565b6119fe846118d9565b81016020851015611a0d578190505b611a21611a19856118d9565b8301826119c0565b50505b505050565b600082821c905092915050565b6000611a4760001984600802611a29565b1980831691505092915050565b6000611a608383611a36565b9150826002028217905092915050565b611a79826116f3565b67ffffffffffffffff811115611a9257611a91611835565b5b611a9c8254611893565b611aa78282856119e3565b600060209050601f831160018114611ada5760008415611ac8578287015190505b611ad28582611a54565b865550611b3a565b601f198416611ae8866118c4565b60005b82811015611b1057848901518255600182019150602085019450602081019050611aeb565b86831015611b2d5784890151611b29601f891682611a36565b8355505b6001600288020188555050505b505050505050565b82818337600083830152505050565b6000611b5d83856116fe565b9350611b6a838584611b42565b611b7383611739565b840190509392505050565b6000606082019050611b936000830187611792565b611ba06020830186611792565b8181036040830152611bb3818486611b51565b905095945050505050565b7f4e487b7100000000000000000000000000000000000000000000000000000000600052602160045260246000fd5b7f4e487b7100000000000000000000000000000000000000000000000000000000600052601160045260246000fd5b6000611c27826112a5565b9150611c32836112a5565b9250828201905080821115611c4a57611c49611bed565b5b92915050565b600060ff82169050919050565b611c6681611c50565b82525050565b6000602082019050611c816000830184611c5d565b9291505056fea2646970667358221220cab459fea30e2fd32f243dbf5a9cb6c75f2de0d3452cd9b1bd0c10218775708564736f6c63430008140033",
  "linkReferences": {},
  "deployedLinkReferences": {}
}