{
  "_format": "hh-sol-artifact-1",
  "contractName": "CommitmentRegistry",
  "sourceName": "contracts/CommitmentRegistry.sol",
  "abi": [
    {
      "anonymous": false,
      "inputs": [
        {
          "indexed": true,
          "internalType": "uint256",
          "name": "commitment",
          "type": "uint256"
        },
        {
          "indexed": false,
          "internalType": "uint256",
          "name": "index",
          "type": "uint256"
        }
      ],
      "name": "CommitmentAdded",
      "type": "event"
    },
    {
      "anonymous": false,
      "inputs": [
        {
          "indexed": true,
          "internalType": "uint256",
          "name": "index",
          "type": "uint256"
        }
      ],
      "name": "CommitmentRevoked",
      "type": "event"
    },
    {
      "inputs": [
        {
          "internalType": "uint256",
          "name": "commitment",
          "type": "uint256"
        },
        {
          "internalType": "bool",
          "name": "isSemaphore",
          "type": "bool"
        }
      ],
      "name": "addCommitment",
      "outputs": [
        {
          "internalType": "uint256",
          "name": "",
          "type": "uint256"
        }
      ],
      "stateMutability": "nonpayable",
      "type": "function"
    },
    {
      "inputs": [
        {
          "internalType": "uint256",
          "name": "index",
          "type": "uint256"
        }
      ],
      "name": "getCommitment",
      "outputs": [
        {
          "internalType": "uint256",
          "name": "commitment",
          "type": "uint256"
        },
        {
          "internalType": "bool",
          "name": "isSemaphore",
          "type": "bool"
        }
      ],
      "stateMutability": "view",
      "type": "function"
    },
    {
      "inputs": [],
      "name": "getSemaphoreCommitments",
      "outputs": [
        {
          "internalType": "uint256[]",
          "name": "",
          "type": "uint256[]"
        }
      ],
      "stateMutability": "view",
      "type": "function"
    },
    {
      "inputs": [],
      "name": "getSize",
      "outputs": [
        {
          "internalType": "uint256",
          "name": "",
          "type": "uint256"
        }
      ],
      "stateMutability": "view",
      "type": "function"
    },
    {
      "inputs": [
        {
          "internalType": "uint256",
          "name": "commitment",
          "type": "uint256"
        }
      ],
      "name": "hasCommitment",
      "outputs": [
        {
          "internalType": "bool",
          "name": "",
          "type": "bool"
        }
      ],
      "stateMutability": "view",
      "type": "function"
    },
    {
      "inputs": [
        {
          "internalType": "uint256",
          "name": "index",
          "type": "uint256"
        }
      ],
      "name": "revoke",
      "outputs": [],
      "stateMutability": "nonpayable",
      "type": "function"
    }
  ],
  "bytecode": "0x608060405234801561001057600080fd5b506109b5806100206000396000f3fe608060405234801561001057600080fd5b50600436106100625760003560e01c806320c5429b1461006757806331aa3a39146100835780635e79b227146100b357806369bcdb7d146100e357806376cde06314610114578063de8fa43114610132575b600080fd5b610081600480360381019061007c91906105bf565b610150565b005b61009d60048036038101906100989190610624565b610204565b6040516100aa9190610673565b60405180910390f35b6100cd60048036038101906100c891906105bf565b61034b565b6040516100da919061069d565b60405180910390f35b6100fd60048036038101906100f891906105bf565b610375565b60405161010b9291906106b8565b60405180910390f35b61011c610405565b604051610129919061079f565b60405180910390f35b61013a610578565b6040516101479190610673565b60405180910390f35b6000805490508110610197576040517f08c379a000000000000000000000000000000000000000000000000000000000815260040161018e9061081e565b60405180910390fd5b60008082815481106101ac576101ab61083e565b5b906000526020600020906002020160010160006101000a81548160ff021916908315150217905550807f88bf64e788542710ef5afedc273ea16a95e349afe742ebc8dfda1761fa8889ba60405160405180910390a250565b60006001600084815260200190815260200160002060009054906101000a900460ff1615610267576040517f08c379a000000000000000000000000000000000000000000000000000000000815260040161025e906108b9565b60405180910390fd5b600180600085815260200190815260200160002060006101000a81548160ff0219169083151502179055506000808054905090506000604051806040016040528086815260200185151581525090806001815401808255809150506001900390600052602060002090600202016000909190919091506000820151816000015560208201518160010160006101000a81548160ff0219169083151502179055505050837f32c71253587c7e978f9c8a69d7f5ea49f6a4c6ed84a67d0c3670f50ff9a77c76826040516103399190610673565b60405180910390a28091505092915050565b60006001600083815260200190815260200160002060009054906101000a900460ff169050919050565b60008060008054905083106103bf576040517f08c379a00000000000000000000000000000000000000000000000000000000081526004016103b69061081e565b60405180910390fd5b60008084815481106103d4576103d361083e565b5b9060005260206000209060020201905080600001548160010160009054906101000a900460ff169250925050915091565b60606000805b600080549050811015610472576000818154811061042c5761042b61083e565b5b906000526020600020906002020160010160009054906101000a900460ff161561045f57818061045b90610908565b9250505b808061046a90610908565b91505061040b565b5060008167ffffffffffffffff81111561048f5761048e610950565b5b6040519080825280602002602001820160405280156104bd5781602001602082028036833780820191505090505b5090506000805b60008054905081101561056e57600081815481106104e5576104e461083e565b5b906000526020600020906002020160010160009054906101000a900460ff161561055b576000818154811061051d5761051c61083e565b5b90600052602060002090600202016000015483838061053b90610908565b94508151811061054e5761054d61083e565b5b6020026020010181815250505b808061056690610908565b9150506104c4565b5081935050505090565b60008080549050905090565b600080fd5b6000819050919050565b61059c81610589565b81146105a757600080fd5b50565b6000813590506105b981610593565b92915050565b6000602082840312156105d5576105d4610584565b5b60006105e3848285016105aa565b91505092915050565b60008115159050919050565b610601816105ec565b811461060c57600080fd5b50565b60008135905061061e816105f8565b92915050565b6000806040838503121561063b5761063a610584565b5b6000610649858286016105aa565b925050602061065a8582860161060f565b9150509250929050565b61066d81610589565b82525050565b60006020820190506106886000830184610664565b92915050565b610697816105ec565b82525050565b60006020820190506106b2600083018461068e565b92915050565b60006040820190506106cd6000830185610664565b6106da602083018461068e565b9392505050565b600081519050919050565b600082825260208201905092915050565b6000819050602082019050919050565b61071681610589565b82525050565b6000610728838361070d565b60208301905092915050565b6000602082019050919050565b600061074c826106e1565b61075681856106ec565b9350610761836106fd565b8060005b83811015610792578151610779888261071c565b975061078483610734565b925050600181019050610765565b5085935050505092915050565b600060208201905081810360008301526107b98184610741565b905092915050565b600082825260208201905092915050565b7f496e646578206f7574206f6620626f756e647300000000000000000000000000600082015250565b60006108086013836107c1565b9150610813826107d2565b602082019050919050565b60006020820190508181036000830152610837816107fb565b9050919050565b7f4e487b7100000000000000000000000000000000000000000000000000000000600052603260045260246000fd5b7f436f6d6d69746d656e7420616c72656164792072656769737465726564000000600082015250565b60006108a3601d836107c1565b91506108ae8261086d565b602082019050919050565b600060208201905081810360008301526108d281610896565b9050919050565b7f4e487b7100000000000000000000000000000000000000000000000000000000600052601160045260246000fd5b600061091382610589565b91507fffffffffffffffffffffffffffffffffffffffffffffffffffffffffffffffff8203610945576109446108d9565b5b600182019050919050565b7f4e487b7100000000000000000000000000000000000000000000000000000000600052604160045260246000fdfea26469706673582212208f504d52e8c8678ac91e4c3210ba5df4ed1dc662cca627a166c4030db07c0fb064736f6c63430008140033",
  "linkReferences": {},
  "deployedLinkReferences": {}
}